{
  "_format": "hh-sol-artifact-1",
  "contractName": "CertificateRegistry",
  "sourceName": "contracts/Certificate.sol",
  "abi": [
    {
      "anonymous": false,
      "inputs": [
        {
          "indexed": true,
          "internalType": "string",
          "name": "hash",
          "type": "string"
        },
        {
          "indexed": false,
          "internalType": "string",
          "name": "ipfsCid",
          "type": "string"
        },
        {
          "indexed": true,
          "internalType": "address",
          "name": "issuer",
          "type": "address"
        }
      ],
      "name": "CertificateRegistered",
      "type": "event"
    },
    {
      "inputs": [
        {
          "internalType": "string",
          "name": "",
          "type": "string"
        }
      ],
      "name": "certificates",
      "outputs": [
        {
          "internalType": "string",
          "name": "hash",
          "type": "string"
        },
        {
          "internalType": "string",
          "name": "ipfsCid",
          "type": "string"
        },
        {
          "internalType": "address",
          "name": "issuer",
          "type": "address"
        },
        {
          "internalType": "bool",
          "name": "valid",
          "type": "bool"
        }
      ],
      "stateMutability": "view",
      "type": "function"
    },
    {
      "inputs": [
        {
          "internalType": "string",
          "name": "_hash",
          "type": "string"
        },
        {
          "internalType": "string",
          "name": "_ipfsCid",
          "type": "string"
        }
      ],
      "name": "registerCertificate",
      "outputs": [],
      "stateMutability": "nonpayable",
      "type": "function"
    },
    {
      "inputs": [
        {
          "internalType": "string",
          "name": "_hash",
          "type": "string"
        }
      ],
      "name": "revokeCertificate",
      "outputs": [],
      "stateMutability": "nonpayable",
      "type": "function"
    },
    {
      "inputs": [
        {
          "internalType": "string",
          "name": "_hash",
          "type": "string"
        }
      ],
      "name": "verifyCertificate",
      "outputs": [
        {
          "internalType": "bool",
          "name": "valid",
          "type": "bool"
        },
        {
          "internalType": "string",
          "name": "ipfsCid",
          "type": "string"
        },
        {
          "internalType": "address",
          "name": "issuer",
          "type": "address"
        }
      ],
      "stateMutability": "view",
      "type": "function"
    }
  ],
  "bytecode": "0x608060405234801561001057600080fd5b50610ca5806100206000396000f3fe608060405234801561001057600080fd5b506004361061004c5760003560e01c8063142e1542146100515780636fc0e8e91461006d5780638b23d875146100895780638f2b91ea146100bb575b600080fd5b61006b60048036038101906100669190610807565b6100ee565b005b61008760048036038101906100829190610848565b61019a565b005b6100a3600480360381019061009e9190610807565b61036d565b6040516100b2939291906109d3565b60405180910390f35b6100d560048036038101906100d09190610807565b610579565b6040516100e59493929190610a33565b60405180910390f35b600080826040516100ff91906109bc565b9081526020016040518091039020600001805461011b90610bce565b9050141561015e576040517f08c379a000000000000000000000000000000000000000000000000000000000815260040161015590610aa6565b60405180910390fd5b6000808260405161016f91906109bc565b908152602001604051809103902060020160146101000a81548160ff02191690831515021790555050565b600080836040516101ab91906109bc565b908152602001604051809103902060000180546101c790610bce565b905014610209576040517f08c379a000000000000000000000000000000000000000000000000000000000815260040161020090610a86565b60405180910390fd5b60405180608001604052808381526020018281526020013373ffffffffffffffffffffffffffffffffffffffff1681526020016001151581525060008360405161025391906109bc565b9081526020016040518091039020600082015181600001908051906020019061027d9291906106fc565b50602082015181600101908051906020019061029a9291906106fc565b5060408201518160020160006101000a81548173ffffffffffffffffffffffffffffffffffffffff021916908373ffffffffffffffffffffffffffffffffffffffff16021790555060608201518160020160146101000a81548160ff0219169083151502179055509050503373ffffffffffffffffffffffffffffffffffffffff168260405161032a91906109bc565b60405180910390207faf7b1b760418417cf59501802e45b0214ea43d6e68399b2c456b2d47ccfcd5da836040516103619190610a11565b60405180910390a35050565b6000606060008060008560405161038491906109bc565b90815260200160405180910390206040518060800160405290816000820180546103ad90610bce565b80601f01602080910402602001604051908101604052809291908181526020018280546103d990610bce565b80156104265780601f106103fb57610100808354040283529160200191610426565b820191906000526020600020905b81548152906001019060200180831161040957829003601f168201915b5050505050815260200160018201805461043f90610bce565b80601f016020809104026020016040519081016040528092919081815260200182805461046b90610bce565b80156104b85780601f1061048d576101008083540402835291602001916104b8565b820191906000526020600020905b81548152906001019060200180831161049b57829003601f168201915b505050505081526020016002820160009054906101000a900473ffffffffffffffffffffffffffffffffffffffff1673ffffffffffffffffffffffffffffffffffffffff1673ffffffffffffffffffffffffffffffffffffffff1681526020016002820160149054906101000a900460ff16151515158152505090508060600151156105565760018160200151826040015193509350935050610572565b6000806040518060200160405280600081525090935093509350505b9193909250565b6000818051602081018201805184825260208301602085012081835280955050505050506000915090508060000180546105b290610bce565b80601f01602080910402602001604051908101604052809291908181526020018280546105de90610bce565b801561062b5780601f106106005761010080835404028352916020019161062b565b820191906000526020600020905b81548152906001019060200180831161060e57829003601f168201915b50505050509080600101805461064090610bce565b80601f016020809104026020016040519081016040528092919081815260200182805461066c90610bce565b80156106b95780601f1061068e576101008083540402835291602001916106b9565b820191906000526020600020905b81548152906001019060200180831161069c57829003601f168201915b5050505050908060020160009054906101000a900473ffffffffffffffffffffffffffffffffffffffff16908060020160149054906101000a900460ff16905084565b82805461070890610bce565b90600052602060002090601f01602090048101928261072a5760008555610771565b82601f1061074357805160ff1916838001178555610771565b82800160010185558215610771579182015b82811115610770578251825591602001919060010190610755565b5b50905061077e9190610782565b5090565b5b8082111561079b576000816000905550600101610783565b5090565b60006107b26107ad84610af7565b610ac6565b9050828152602081018484840111156107ca57600080fd5b6107d5848285610b8c565b509392505050565b600082601f8301126107ee57600080fd5b81356107fe84826020860161079f565b91505092915050565b60006020828403121561081957600080fd5b600082013567ffffffffffffffff81111561083357600080fd5b61083f848285016107dd565b91505092915050565b6000806040838503121561085b57600080fd5b600083013567ffffffffffffffff81111561087557600080fd5b610881858286016107dd565b925050602083013567ffffffffffffffff81111561089e57600080fd5b6108aa858286016107dd565b9150509250929050565b6108bd81610b4e565b82525050565b6108cc81610b60565b82525050565b60006108dd82610b27565b6108e78185610b32565b93506108f7818560208601610b9b565b61090081610c5e565b840191505092915050565b600061091682610b27565b6109208185610b43565b9350610930818560208601610b9b565b80840191505092915050565b6000610949601e83610b32565b91507f436572746966696361746520616c7265616479207265676973746572656400006000830152602082019050919050565b6000610989601583610b32565b91507f4365727469666963617465206e6f7420666f756e6400000000000000000000006000830152602082019050919050565b60006109c8828461090b565b915081905092915050565b60006060820190506109e860008301866108c3565b81810360208301526109fa81856108d2565b9050610a0960408301846108b4565b949350505050565b60006020820190508181036000830152610a2b81846108d2565b905092915050565b60006080820190508181036000830152610a4d81876108d2565b90508181036020830152610a6181866108d2565b9050610a7060408301856108b4565b610a7d60608301846108c3565b95945050505050565b60006020820190508181036000830152610a9f8161093c565b9050919050565b60006020820190508181036000830152610abf8161097c565b9050919050565b6000604051905081810181811067ffffffffffffffff82111715610aed57610aec610c2f565b5b8060405250919050565b600067ffffffffffffffff821115610b1257610b11610c2f565b5b601f19601f8301169050602081019050919050565b600081519050919050565b600082825260208201905092915050565b600081905092915050565b6000610b5982610b6c565b9050919050565b60008115159050919050565b600073ffffffffffffffffffffffffffffffffffffffff82169050919050565b82818337600083830152505050565b60005b83811015610bb9578082015181840152602081019050610b9e565b83811115610bc8576000848401525b50505050565b60006002820490506001821680610be657607f821691505b60208210811415610bfa57610bf9610c00565b5b50919050565b7f4e487b7100000000000000000000000000000000000000000000000000000000600052602260045260246000fd5b7f4e487b7100000000000000000000000000000000000000000000000000000000600052604160045260246000fd5b6000601f19601f830116905091905056fea26469706673582212206b36e6a57f64ddacb906c2897383ad7db1f136fe424f7de757c5696fec9dd07864736f6c63430008000033",
  "linkReferences": {},
  "deployedLinkReferences": {}
}